{
  "_format": "hh-sol-artifact-1",
  "contractName": "RealmToken",
  "sourceName": "contracts/RealmToken.sol",
  "abi": [
    {
      "inputs": [
        {
          "internalType": "address",
          "name": "safeAddress",
          "type": "address"
        }
      ],
      "stateMutability": "nonpayable",
      "type": "constructor"
    },
    {
      "anonymous": false,
      "inputs": [
        {
          "indexed": true,
          "internalType": "address",
          "name": "owner",
          "type": "address"
        },
        {
          "indexed": true,
          "internalType": "address",
          "name": "spender",
          "type": "address"
        },
        {
          "indexed": false,
          "internalType": "uint256",
          "name": "value",
          "type": "uint256"
        }
      ],
      "name": "Approval",
      "type": "event"
    },
    {
      "anonymous": false,
      "inputs": [
        {
          "indexed": false,
          "internalType": "address",
          "name": "account",
          "type": "address"
        }
      ],
      "name": "Paused",
      "type": "event"
    },
    {
      "anonymous": false,
      "inputs": [
        {
          "indexed": true,
          "internalType": "bytes32",
          "name": "role",
          "type": "bytes32"
        },
        {
          "indexed": true,
          "internalType": "bytes32",
          "name": "previousAdminRole",
          "type": "bytes32"
        },
        {
          "indexed": true,
          "internalType": "bytes32",
          "name": "newAdminRole",
          "type": "bytes32"
        }
      ],
      "name": "RoleAdminChanged",
      "type": "event"
    },
    {
      "anonymous": false,
      "inputs": [
        {
          "indexed": true,
          "internalType": "bytes32",
          "name": "role",
          "type": "bytes32"
        },
        {
          "indexed": true,
          "internalType": "address",
          "name": "account",
          "type": "address"
        },
        {
          "indexed": true,
          "internalType": "address",
          "name": "sender",
          "type": "address"
        }
      ],
      "name": "RoleGranted",
      "type": "event"
    },
    {
      "anonymous": false,
      "inputs": [
        {
          "indexed": true,
          "internalType": "bytes32",
          "name": "role",
          "type": "bytes32"
        },
        {
          "indexed": true,
          "internalType": "address",
          "name": "account",
          "type": "address"
        },
        {
          "indexed": true,
          "internalType": "address",
          "name": "sender",
          "type": "address"
        }
      ],
      "name": "RoleRevoked",
      "type": "event"
    },
    {
      "anonymous": false,
      "inputs": [
        {
          "indexed": true,
          "internalType": "address",
          "name": "from",
          "type": "address"
        },
        {
          "indexed": true,
          "internalType": "address",
          "name": "to",
          "type": "address"
        },
        {
          "indexed": false,
          "internalType": "uint256",
          "name": "value",
          "type": "uint256"
        }
      ],
      "name": "Transfer",
      "type": "event"
    },
    {
      "anonymous": false,
      "inputs": [
        {
          "indexed": false,
          "internalType": "address",
          "name": "account",
          "type": "address"
        }
      ],
      "name": "Unpaused",
      "type": "event"
    },
    {
      "inputs": [],
      "name": "DEFAULT_ADMIN_ROLE",
      "outputs": [
        {
          "internalType": "bytes32",
          "name": "",
          "type": "bytes32"
        }
      ],
      "stateMutability": "view",
      "type": "function"
    },
    {
      "inputs": [],
      "name": "PAUSER_ROLE",
      "outputs": [
        {
          "internalType": "bytes32",
          "name": "",
          "type": "bytes32"
        }
      ],
      "stateMutability": "view",
      "type": "function"
    },
    {
      "inputs": [
        {
          "internalType": "address",
          "name": "owner",
          "type": "address"
        },
        {
          "internalType": "address",
          "name": "spender",
          "type": "address"
        }
      ],
      "name": "allowance",
      "outputs": [
        {
          "internalType": "uint256",
          "name": "",
          "type": "uint256"
        }
      ],
      "stateMutability": "view",
      "type": "function"
    },
    {
      "inputs": [
        {
          "internalType": "address",
          "name": "spender",
          "type": "address"
        },
        {
          "internalType": "uint256",
          "name": "amount",
          "type": "uint256"
        }
      ],
      "name": "approve",
      "outputs": [
        {
          "internalType": "bool",
          "name": "",
          "type": "bool"
        }
      ],
      "stateMutability": "nonpayable",
      "type": "function"
    },
    {
      "inputs": [
        {
          "internalType": "address",
          "name": "account",
          "type": "address"
        }
      ],
      "name": "balanceOf",
      "outputs": [
        {
          "internalType": "uint256",
          "name": "",
          "type": "uint256"
        }
      ],
      "stateMutability": "view",
      "type": "function"
    },
    {
      "inputs": [
        {
          "internalType": "uint256",
          "name": "amount",
          "type": "uint256"
        }
      ],
      "name": "burn",
      "outputs": [],
      "stateMutability": "nonpayable",
      "type": "function"
    },
    {
      "inputs": [
        {
          "internalType": "address",
          "name": "account",
          "type": "address"
        },
        {
          "internalType": "uint256",
          "name": "amount",
          "type": "uint256"
        }
      ],
      "name": "burnFrom",
      "outputs": [],
      "stateMutability": "nonpayable",
      "type": "function"
    },
    {
      "inputs": [],
      "name": "decimals",
      "outputs": [
        {
          "internalType": "uint8",
          "name": "",
          "type": "uint8"
        }
      ],
      "stateMutability": "view",
      "type": "function"
    },
    {
      "inputs": [
        {
          "internalType": "address",
          "name": "spender",
          "type": "address"
        },
        {
          "internalType": "uint256",
          "name": "subtractedValue",
          "type": "uint256"
        }
      ],
      "name": "decreaseAllowance",
      "outputs": [
        {
          "internalType": "bool",
          "name": "",
          "type": "bool"
        }
      ],
      "stateMutability": "nonpayable",
      "type": "function"
    },
    {
      "inputs": [
        {
          "internalType": "bytes32",
          "name": "role",
          "type": "bytes32"
        }
      ],
      "name": "getRoleAdmin",
      "outputs": [
        {
          "internalType": "bytes32",
          "name": "",
          "type": "bytes32"
        }
      ],
      "stateMutability": "view",
      "type": "function"
    },
    {
      "inputs": [
        {
          "internalType": "bytes32",
          "name": "role",
          "type": "bytes32"
        },
        {
          "internalType": "uint256",
          "name": "index",
          "type": "uint256"
        }
      ],
      "name": "getRoleMember",
      "outputs": [
        {
          "internalType": "address",
          "name": "",
          "type": "address"
        }
      ],
      "stateMutability": "view",
      "type": "function"
    },
    {
      "inputs": [
        {
          "internalType": "bytes32",
          "name": "role",
          "type": "bytes32"
        }
      ],
      "name": "getRoleMemberCount",
      "outputs": [
        {
          "internalType": "uint256",
          "name": "",
          "type": "uint256"
        }
      ],
      "stateMutability": "view",
      "type": "function"
    },
    {
      "inputs": [
        {
          "internalType": "bytes32",
          "name": "role",
          "type": "bytes32"
        },
        {
          "internalType": "address",
          "name": "account",
          "type": "address"
        }
      ],
      "name": "grantRole",
      "outputs": [],
      "stateMutability": "nonpayable",
      "type": "function"
    },
    {
      "inputs": [
        {
          "internalType": "bytes32",
          "name": "role",
          "type": "bytes32"
        },
        {
          "internalType": "address",
          "name": "account",
          "type": "address"
        }
      ],
      "name": "hasRole",
      "outputs": [
        {
          "internalType": "bool",
          "name": "",
          "type": "bool"
        }
      ],
      "stateMutability": "view",
      "type": "function"
    },
    {
      "inputs": [
        {
          "internalType": "address",
          "name": "spender",
          "type": "address"
        },
        {
          "internalType": "uint256",
          "name": "addedValue",
          "type": "uint256"
        }
      ],
      "name": "increaseAllowance",
      "outputs": [
        {
          "internalType": "bool",
          "name": "",
          "type": "bool"
        }
      ],
      "stateMutability": "nonpayable",
      "type": "function"
    },
    {
      "inputs": [],
      "name": "name",
      "outputs": [
        {
          "internalType": "string",
          "name": "",
          "type": "string"
        }
      ],
      "stateMutability": "view",
      "type": "function"
    },
    {
      "inputs": [],
      "name": "pause",
      "outputs": [],
      "stateMutability": "nonpayable",
      "type": "function"
    },
    {
      "inputs": [],
      "name": "paused",
      "outputs": [
        {
          "internalType": "bool",
          "name": "",
          "type": "bool"
        }
      ],
      "stateMutability": "view",
      "type": "function"
    },
    {
      "inputs": [
        {
          "internalType": "bytes32",
          "name": "role",
          "type": "bytes32"
        },
        {
          "internalType": "address",
          "name": "account",
          "type": "address"
        }
      ],
      "name": "renounceRole",
      "outputs": [],
      "stateMutability": "nonpayable",
      "type": "function"
    },
    {
      "inputs": [
        {
          "internalType": "bytes32",
          "name": "role",
          "type": "bytes32"
        },
        {
          "internalType": "address",
          "name": "account",
          "type": "address"
        }
      ],
      "name": "revokeRole",
      "outputs": [],
      "stateMutability": "nonpayable",
      "type": "function"
    },
    {
      "inputs": [
        {
          "internalType": "bytes4",
          "name": "interfaceId",
          "type": "bytes4"
        }
      ],
      "name": "supportsInterface",
      "outputs": [
        {
          "internalType": "bool",
          "name": "",
          "type": "bool"
        }
      ],
      "stateMutability": "view",
      "type": "function"
    },
    {
      "inputs": [],
      "name": "symbol",
      "outputs": [
        {
          "internalType": "string",
          "name": "",
          "type": "string"
        }
      ],
      "stateMutability": "view",
      "type": "function"
    },
    {
      "inputs": [],
      "name": "totalSupply",
      "outputs": [
        {
          "internalType": "uint256",
          "name": "",
          "type": "uint256"
        }
      ],
      "stateMutability": "view",
      "type": "function"
    },
    {
      "inputs": [
        {
          "internalType": "address",
          "name": "recipient",
          "type": "address"
        },
        {
          "internalType": "uint256",
          "name": "amount",
          "type": "uint256"
        }
      ],
      "name": "transfer",
      "outputs": [
        {
          "internalType": "bool",
          "name": "",
          "type": "bool"
        }
      ],
      "stateMutability": "nonpayable",
      "type": "function"
    },
    {
      "inputs": [
        {
          "internalType": "address",
          "name": "sender",
          "type": "address"
        },
        {
          "internalType": "address",
          "name": "recipient",
          "type": "address"
        },
        {
          "internalType": "uint256",
          "name": "amount",
          "type": "uint256"
        }
      ],
      "name": "transferFrom",
      "outputs": [
        {
          "internalType": "bool",
          "name": "",
          "type": "bool"
        }
      ],
      "stateMutability": "nonpayable",
      "type": "function"
    },
    {
      "inputs": [],
      "name": "unpause",
      "outputs": [],
      "stateMutability": "nonpayable",
      "type": "function"
    }
  ],
  "bytecode": "0x60806040523480156200001157600080fd5b5060405162001c6238038062001c62833981016040819052620000349162000486565b6040805180820182526005808252645245414c4d60d81b6020808401828152855180870190965292855284015281519192916200007491600391620003e0565b5080516200008a906004906020840190620003e0565b50506005805460ff1916905550620000c37f65d7a28e3265b37a6474929f336521b332c1681b933f6cb9f3376673440d862a8262000100565b620000d060003362000100565b620000f933620000e36012600a6200051e565b620000f390633b9aca0062000609565b62000143565b506200067e565b6200011782826200023a60201b620008bf1760201c565b60008281526007602090815260409091206200013e918390620008cd6200024a821b17901c565b505050565b6001600160a01b0382166200019f5760405162461bcd60e51b815260206004820152601f60248201527f45524332303a206d696e7420746f20746865207a65726f20616464726573730060448201526064015b60405180910390fd5b620001ad600083836200026a565b8060026000828254620001c19190620004b6565b90915550506001600160a01b03821660009081526020819052604081208054839290620001f0908490620004b6565b90915550506040518181526001600160a01b038316906000907fddf252ad1be2c89b69c2b068fc378daa952ba7f163c4a11628f55a4df523b3ef9060200160405180910390a35050565b620002468282620002ea565b5050565b600062000261836001600160a01b0384166200038e565b90505b92915050565b620002828383836200013e60201b620005871760201c565b60055460ff16156200013e5760405162461bcd60e51b815260206004820152602a60248201527f45524332305061757361626c653a20746f6b656e207472616e736665722077686044820152691a5b19481c185d5cd95960b21b606482015260840162000196565b60008281526006602090815260408083206001600160a01b038516845290915290205460ff16620002465760008281526006602090815260408083206001600160a01b03851684529091529020805460ff191660011790556200034a3390565b6001600160a01b0316816001600160a01b0316837f2f8788117e7eff1d82e926ec794901d17c78024a50270940304540a733656f0d60405160405180910390a45050565b6000818152600183016020526040812054620003d75750815460018181018455600084815260208082209093018490558454848252828601909352604090209190915562000264565b50600062000264565b828054620003ee906200062b565b90600052602060002090601f0160209004810192826200041257600085556200045d565b82601f106200042d57805160ff19168380011785556200045d565b828001600101855582156200045d579182015b828111156200045d57825182559160200191906001019062000440565b506200046b9291506200046f565b5090565b5b808211156200046b576000815560010162000470565b60006020828403121562000498578081fd5b81516001600160a01b0381168114620004af578182fd5b9392505050565b60008219821115620004cc57620004cc62000668565b500190565b80825b6001808611620004e5575062000515565b818704821115620004fa57620004fa62000668565b808616156200050857918102915b9490941c938002620004d4565b94509492505050565b60006200026160001960ff8516846000826200053d57506001620004af565b816200054c57506000620004af565b81600181146200056557600281146200057057620005a4565b6001915050620004af565b60ff84111562000584576200058462000668565b6001841b9150848211156200059d576200059d62000668565b50620004af565b5060208310610133831016604e8410600b8410161715620005dc575081810a83811115620005d657620005d662000668565b620004af565b620005eb8484846001620004d1565b80860482111562000600576200060062000668565b02949350505050565b600081600019048311821515161562000626576200062662000668565b500290565b600181811c908216806200064057607f821691505b602082108114156200066257634e487b7160e01b600052602260045260246000fd5b50919050565b634e487b7160e01b600052601160045260246000fd5b6115d4806200068e6000396000f3fe608060405234801561001057600080fd5b506004361061018e5760003560e01c806370a08231116100de578063a217fddf11610097578063ca15c87311610071578063ca15c87314610353578063d547741f14610366578063dd62ed3e14610379578063e63ab1e9146103b25761018e565b8063a217fddf14610325578063a457c2d71461032d578063a9059cbb146103405761018e565b806370a082311461029b57806379cc6790146102c45780638456cb59146102d75780639010d07c146102df57806391d148541461030a57806395d89b411461031d5761018e565b80632f2ff15d1161014b578063395093511161012557806339509351146102625780633f4ba83a1461027557806342966c681461027d5780635c975abb146102905761018e565b80632f2ff15d1461022b578063313ce5671461024057806336568abe1461024f5761018e565b806301ffc9a71461019357806306fdde03146101bb578063095ea7b3146101d057806318160ddd146101e357806323b872dd146101f5578063248a9ca314610208575b600080fd5b6101a66101a13660046114a3565b6103d9565b60405190151581526020015b60405180910390f35b6101c3610406565b6040516101b291906114cb565b6101a66101de36600461141f565b610498565b6002545b6040519081526020016101b2565b6101a66102033660046113e4565b6104af565b6101e7610216366004611448565b60009081526006602052604090206001015490565b61023e610239366004611460565b610565565b005b604051601281526020016101b2565b61023e61025d366004611460565b61058c565b6101a661027036600461141f565b6105ae565b61023e6105e5565b61023e61028b366004611448565b61067b565b60055460ff166101a6565b6101e76102a9366004611398565b6001600160a01b031660009081526020819052604090205490565b61023e6102d236600461141f565b610688565b61023e61070b565b6102f26102ed366004611482565b61079d565b6040516001600160a01b0390911681526020016101b2565b6101a6610318366004611460565b6107bc565b6101c36107e7565b6101e7600081565b6101a661033b36600461141f565b6107f6565b6101a661034e36600461141f565b610891565b6101e7610361366004611448565b61089e565b61023e610374366004611460565b6108b5565b6101e76103873660046113b2565b6001600160a01b03918216600090815260016020908152604080832093909416825291909152205490565b6101e77f65d7a28e3265b37a6474929f336521b332c1681b933f6cb9f3376673440d862a81565b60006001600160e01b03198216635a05180f60e01b14806103fe57506103fe826108e2565b90505b919050565b6060600380546104159061154d565b80601f01602080910402602001604051908101604052809291908181526020018280546104419061154d565b801561048e5780601f106104635761010080835404028352916020019161048e565b820191906000526020600020905b81548152906001019060200180831161047157829003601f168201915b5050505050905090565b60006104a5338484610917565b5060015b92915050565b60006104bc848484610a3c565b6001600160a01b0384166000908152600160209081526040808320338452909152902054828110156105465760405162461bcd60e51b815260206004820152602860248201527f45524332303a207472616e7366657220616d6f756e74206578636565647320616044820152676c6c6f77616e636560c01b60648201526084015b60405180910390fd5b61055a85336105558685611536565b610917565b506001949350505050565b61056f8282610c1f565b600082815260076020526040902061058790826108cd565b505050565b6105968282610ca0565b60008281526007602052604090206105879082610d1a565b3360008181526001602090815260408083206001600160a01b038716845290915281205490916104a591859061055590869061151e565b61060f7f65d7a28e3265b37a6474929f336521b332c1681b933f6cb9f3376673440d862a33610318565b6106715760405162461bcd60e51b815260206004820152602d60248201527f4d75737420686176652070617573657220726f6c6520746f20756e706175736560448201526c081d1a194818dbdb9d1c9858dd609a1b606482015260840161053d565b610679610d2f565b565b6106853382610dc2565b50565b60006106948333610387565b9050818110156106f25760405162461bcd60e51b8152602060048201526024808201527f45524332303a206275726e20616d6f756e74206578636565647320616c6c6f77604482015263616e636560e01b606482015260840161053d565b61070183336105558585611536565b6105878383610dc2565b6107357f65d7a28e3265b37a6474929f336521b332c1681b933f6cb9f3376673440d862a33610318565b6107955760405162461bcd60e51b815260206004820152602b60248201527f4d75737420686176652070617573657220726f6c6520746f207061757365207460448201526a1a194818dbdb9d1c9858dd60aa1b606482015260840161053d565b610679610f1d565b60008281526007602052604081206107b59083610f98565b9392505050565b60009182526006602090815260408084206001600160a01b0393909316845291905290205460ff1690565b6060600480546104159061154d565b3360009081526001602090815260408083206001600160a01b0386168452909152812054828110156108785760405162461bcd60e51b815260206004820152602560248201527f45524332303a2064656372656173656420616c6c6f77616e63652062656c6f77604482015264207a65726f60d81b606482015260840161053d565b61088733856105558685611536565b5060019392505050565b60006104a5338484610a3c565b60008181526007602052604081206103fe90610fa4565b6105968282610fae565b6108c9828261102e565b5050565b60006107b5836001600160a01b0384166110b4565b60006001600160e01b03198216637965db0b60e01b14806103fe57506301ffc9a760e01b6001600160e01b03198316146103fe565b6001600160a01b0383166109795760405162461bcd60e51b8152602060048201526024808201527f45524332303a20617070726f76652066726f6d20746865207a65726f206164646044820152637265737360e01b606482015260840161053d565b6001600160a01b0382166109da5760405162461bcd60e51b815260206004820152602260248201527f45524332303a20617070726f766520746f20746865207a65726f206164647265604482015261737360f01b606482015260840161053d565b6001600160a01b0383811660008181526001602090815260408083209487168084529482529182902085905590518481527f8c5be1e5ebec7d5bd14f71427d1e84f3dd0314c0f7b2291e5b200ac8c7c3b92591015b60405180910390a3505050565b6001600160a01b038316610aa05760405162461bcd60e51b815260206004820152602560248201527f45524332303a207472616e736665722066726f6d20746865207a65726f206164604482015264647265737360d81b606482015260840161053d565b6001600160a01b038216610b025760405162461bcd60e51b815260206004820152602360248201527f45524332303a207472616e7366657220746f20746865207a65726f206164647260448201526265737360e81b606482015260840161053d565b610b0d838383611103565b6001600160a01b03831660009081526020819052604090205481811015610b855760405162461bcd60e51b815260206004820152602660248201527f45524332303a207472616e7366657220616d6f756e7420657863656564732062604482015265616c616e636560d01b606482015260840161053d565b610b8f8282611536565b6001600160a01b038086166000908152602081905260408082209390935590851681529081208054849290610bc590849061151e565b92505081905550826001600160a01b0316846001600160a01b03167fddf252ad1be2c89b69c2b068fc378daa952ba7f163c4a11628f55a4df523b3ef84604051610c1191815260200190565b60405180910390a350505050565b600082815260066020526040902060010154610c3c905b33610318565b6108bf5760405162461bcd60e51b815260206004820152602f60248201527f416363657373436f6e74726f6c3a2073656e646572206d75737420626520616e60448201526e0818591b5a5b881d1bc819dc985b9d608a1b606482015260840161053d565b6001600160a01b0381163314610d105760405162461bcd60e51b815260206004820152602f60248201527f416363657373436f6e74726f6c3a2063616e206f6e6c792072656e6f756e636560448201526e103937b632b9903337b91039b2b63360891b606482015260840161053d565b6108c98282611169565b60006107b5836001600160a01b0384166111d0565b60055460ff16610d785760405162461bcd60e51b815260206004820152601460248201527314185d5cd8589b194e881b9bdd081c185d5cd95960621b604482015260640161053d565b6005805460ff191690557f5db9ee0a495bf2e6ff9c91a7834c1ba4fdd244a5e8aa4e537bd38aeae4b073aa335b6040516001600160a01b03909116815260200160405180910390a1565b6001600160a01b038216610e225760405162461bcd60e51b815260206004820152602160248201527f45524332303a206275726e2066726f6d20746865207a65726f206164647265736044820152607360f81b606482015260840161053d565b610e2e82600083611103565b6001600160a01b03821660009081526020819052604090205481811015610ea25760405162461bcd60e51b815260206004820152602260248201527f45524332303a206275726e20616d6f756e7420657863656564732062616c616e604482015261636560f01b606482015260840161053d565b610eac8282611536565b6001600160a01b03841660009081526020819052604081209190915560028054849290610eda908490611536565b90915550506040518281526000906001600160a01b038516907fddf252ad1be2c89b69c2b068fc378daa952ba7f163c4a11628f55a4df523b3ef90602001610a2f565b60055460ff1615610f635760405162461bcd60e51b815260206004820152601060248201526f14185d5cd8589b194e881c185d5cd95960821b604482015260640161053d565b6005805460ff191660011790557f62e78cea01bee320cd4e420270b5ea74000d11b0c9f74754ebdbfc544b05a258610da53390565b60006107b583836112ed565b60006103fe825490565b600082815260066020526040902060010154610fc990610c36565b610d105760405162461bcd60e51b815260206004820152603060248201527f416363657373436f6e74726f6c3a2073656e646572206d75737420626520616e60448201526f2061646d696e20746f207265766f6b6560801b606482015260840161053d565b61103882826107bc565b6108c95760008281526006602090815260408083206001600160a01b03851684529091529020805460ff191660011790556110703390565b6001600160a01b0316816001600160a01b0316837f2f8788117e7eff1d82e926ec794901d17c78024a50270940304540a733656f0d60405160405180910390a45050565b60008181526001830160205260408120546110fb575081546001818101845560008481526020808220909301849055845484825282860190935260409020919091556104a9565b5060006104a9565b60055460ff16156105875760405162461bcd60e51b815260206004820152602a60248201527f45524332305061757361626c653a20746f6b656e207472616e736665722077686044820152691a5b19481c185d5cd95960b21b606482015260840161053d565b61117382826107bc565b156108c95760008281526006602090815260408083206001600160a01b0385168085529252808320805460ff1916905551339285917ff6391f5c32d9c69d2a47ea670b442974b53935d1edc7fd64eb21e047a839171b9190a45050565b600081815260018301602052604081205480156112e35760006111f4600183611536565b855490915060009061120890600190611536565b9050600086600001828154811061122f57634e487b7160e01b600052603260045260246000fd5b906000526020600020015490508087600001848154811061126057634e487b7160e01b600052603260045260246000fd5b60009182526020909120015561127783600161151e565b600082815260018901602052604090205586548790806112a757634e487b7160e01b600052603160045260246000fd5b600190038181906000526020600020016000905590558660010160008781526020019081526020016000206000905560019450505050506104a9565b60009150506104a9565b8154600090821061134b5760405162461bcd60e51b815260206004820152602260248201527f456e756d657261626c655365743a20696e646578206f7574206f6620626f756e604482015261647360f01b606482015260840161053d565b82600001828154811061136e57634e487b7160e01b600052603260045260246000fd5b9060005260206000200154905092915050565b80356001600160a01b038116811461040157600080fd5b6000602082840312156113a9578081fd5b6107b582611381565b600080604083850312156113c4578081fd5b6113cd83611381565b91506113db60208401611381565b90509250929050565b6000806000606084860312156113f8578081fd5b61140184611381565b925061140f60208501611381565b9150604084013590509250925092565b60008060408385031215611431578182fd5b61143a83611381565b946020939093013593505050565b600060208284031215611459578081fd5b5035919050565b60008060408385031215611472578182fd5b823591506113db60208401611381565b60008060408385031215611494578182fd5b50508035926020909101359150565b6000602082840312156114b4578081fd5b81356001600160e01b0319811681146107b5578182fd5b6000602080835283518082850152825b818110156114f7578581018301518582016040015282016114db565b818111156115085783604083870101525b50601f01601f1916929092016040019392505050565b6000821982111561153157611531611588565b500190565b60008282101561154857611548611588565b500390565b600181811c9082168061156157607f821691505b6020821081141561158257634e487b7160e01b600052602260045260246000fd5b50919050565b634e487b7160e01b600052601160045260246000fdfea26469706673582212205d1b8a036c25b7faa033190516c12bdd1a5fd1240680974eb174b897fad5477c64736f6c63430008030033",
  "linkReferences": {},
  "deployedLinkReferences": {}
}